:020000041000EA
:1000000000B5324B212058609868022188439860DF
:10001000D860186158612E4B002199600221596106
:100020000121F02299502B49196001219960352056
:1000300000F044F80222904214D00621196600F024
:1000400034F8196E01211966002018661A6600F04E
:100050002CF8196E196E196E052000F02FF8012189
:100060000842F9D1002199601B49196000215960AB
:100070001A491B48016001219960EB211966A021F2
:10008000196600F012F800219960164914480160C1
:100090000121996001BC002800D000471248134993
:1000A000086003C880F30888084703B5996A0420EC
:1000B0000142FBD001200142F8D103BD02B5186610
:1000C0001866FFF7F2FF186E186E02BD00000240BE
:1000D000000000180000070000035F00212200005C
:1000E000F4000018222000A00001001008ED00E03C
:1000F00000000000000000000000000074B24E7A12
:1001000000200420F7010010C3010010C5010010F9
:10011000C1010010C1010010C1010010C101001097
:10012000C1010010C1010010C1010010C701001081
:10013000C1010010C1010010C9010010CB01001065
:10014000CD010010CD010010CD010010CD01001037
:10015000CD010010CD010010CD010010CD01001027
:10016000CD010010CD010010CD010010CD01001017
:10017000CD010010CD010010CD010010CD01001007
:10018000CD010010CD010010CD010010CD010010F7
:10019000CD010010CD010010CD010010CD010010E7
:1001A000CD010010CD010010CD010010CD010010D7
:1001B000CD010010CD010010CD010010CD010010C7
:1001C00000BE00BE00BE00BE00BE00BE00F04BF888
:1001D000103800BEF2EB88710CB9001030B9001075
:1001E0003402001090A31AE700202149086006C8D5
:1001F00081F3088810471F48006800282FD10DA4FC
:100200000ECC002902D000F012F8F9E71A491B4A77
:10021000002000E001C19142FCD1194988471949E9
:1002200088471949884700BEFDE701C901C29A42C3
:10023000FBD3704730B90010C0000020D0CD0120A2
:1002400040860210000004200000042040860210B6
:1002500000100420001004200000000070470B482C
:1002600004F00AFC0047EFF30580C0B270470000BD
:1002700008ED00E0000000D0D0CD0120D4DB01204B
:10028000693300101D03001025330010575600007D
:1002900006005250ABB360534CAF001006005250F2
:1002A000861C03025CAF0010060052505422A29D2F
:1002B00068AF001005005250DE65F46840860210F9
:1002C000F8B5C04610B5064C2378002B07D1054B76
:1002D000002B02D0044800E000BF0123237010BDB2
:1002E000D8CE01200000000090970010044B10B5FC
:1002F000002B03D00349044800E000BF10BDC046F6
:1003000000000000DCCE01209097001010B501F035
:100310004DF9FA2002F010FCF9E7000010B505F0E5
:10032000D5FC00F0CBFF01F005FA094808F056FDB6
:1003300003E0084B1A6000F097FA074B9A6A074BE4
:100340001A60044B1B68D31A05498B42F1D8F2E7B7
:100350000D03001054D9012000400540C4D40120F1
:1003600090D00300F0B58BB005000E001400C8B2A9
:100370002870D7B26F70D208D2B2AA70EB70109BFF
:100380006B6050432861013005F016FBE8600028DF
:1003900041D00130E86003ABAE221A7027325A70A8
:1003A000553A9A702832DA70013F1F712B325A7118
:1003B00000229A714032DA714D321A722A7A002A7A
:1003C0002BD0102103AB5972A12199722731D97218
:1003D000123119736400A64221DDD83903AB597379
:1003E000812199737E31D97326391974002A18D066
:1003F000222203AB5A74DB229A74AB3ADA74743259
:100400001A7502325A7509329A758F3ADA750022D6
:100410001A7600240CE0286123E01421D2E712218F
:10042000DCE7F122E5E71049104805F043FC013410
:10043000182C15D803AB1A5D002369460B724A725B
:10044000E9780093023302AA686808F0ABFA831CCB
:10045000E9D0431CEBD10449054805F02BFCE6E745
:1004600001200BB0F0BDC04690970010A09700107F
:10047000C097001010B50300C0681A69002105F08C
:10048000C1FA10BD10B503788B420DD9447894425F
:100490000AD9C068D40863435B1807210A400639AB
:1004A0009140C25C0A43C25410BDF0B5D6464F46D7
:1004B0004646C0B580460E0015001F00089C9942B4
:1004C00001DD25001E00BE420DD0601B05F0B2F913
:1004D000041CB81B05F0AEF9011C201C05F08BF9BB
:1004E0008146340022E0A54207DD250005E02A0010
:1004F00031004046FFF7C6FF0135A542F7DD17E0A2
:10050000A01B05F097F9494605F08BF982462800B3
:1005100005F090F9011C504605F068F905F0ACF9BA
:10052000020021004046FFF7ADFF0134BC42E7DD89
:10053000E0BCBA46B146A846F0BDF0B5D6464F4637
:100540004646C0B58146884617009A46089E002553
:1005500009E0E2194346E9184846FFF793FF0134E2
:10056000B442F6D30135554501D20024F8E7E0BC8A
:10057000BA46B146A846F0BDF0B5DE4657464E46EF
:100580004546E0B585B081468A4693461F000EABCE
:1005900040CB1B7803937E2B25D80023984617E089
:1005A000013464B26D0833789C420DDAEB07F7D55D
:1005B0003A0062435A4441467943514400973B0014
:1005C0004846FFF7BAFFEBE743460133DBB29846F4
:1005D0007378434507D9039A203A5343434402337F
:1005E000F55C0024DFE705B0F0BCBB46B246A94687
:1005F000A046F0BDF0B5CE46474680B583B08046F4
:1006000091461D000A9E0B9C0F000CE001340193E3
:1006100000962B004A4639004046FFF7ADFF71783F
:1006200069437F1801372378002BEFD103B0C0BC9A
:10063000B946B046F0BD000010B582B0049C0194EC
:10064000024C0094FFF7D6FF02B010BDE0970010F7
:1006500030B587B0050004AB21221A700021597013
:100660000078421ED2B29A702224DC701971A978E7
:1006700001395971402801D0002409E02021597026
:1006800020329A70F8E71D491D4805F013FB01342C
:10069000052C15D804AB1A5D002369460B734A7309
:1006A000E9780093023303AA686808F07BF9831C99
:1006B000E9D0431CEBD11149124805F0FBFAE6E7FB
:1006C000EB68013B40221A706868E978EB685A1EB3
:1006D0002B6901330024009408F064F9831C03D0D3
:1006E000431C06D007B030BD0749054805F0E2FAC3
:1006F000F8E70549034805F0DDFAF3E790970010A5
:10070000A0970010C0970010D097001030B5C943D3
:10071000C9B2002300E00133072B17DC0400DC40E2
:10072000FF2222408A42F6D11A0008320400D44047
:10073000FF2222409142EED11A0010320400D44030
:10074000FF2222409142E6D1012000E0002030BD8E
:10075000C343DBB2180218431A04024318061043BD
:10076000704710B504000521FFF7D0FF00285BD1CA
:100770000F212000FFF7CAFF002857D127212000B2
:10078000FFF7C4FF002853D13F212000FFF7BEFF31
:1007900000284FD11D212000FFF7B8FF00284BD1C2
:1007A00003212000FFF7B2FF002847D12B212000B2
:1007B000FFF7ACFF002843D177212000FFF7A6FF09
:1007C00000283FD18D212000FFF7A0FF00283BD15A
:1007D00009212000FFF79AFF002837D16F21200060
:1007E000FFF794FF002833D111212000FFF78EFF7F
:1007F00000282FD117212000FFF788FF00282BD1D8
:100800002D212000FFF782FF002827D1332120006F
:10081000FFF77CFF002823D135212000FFF776FF6A
:1008200000281FD1203000E0302010BD3120FCE72F
:100830003220FAE73320F8E73420F6E73520F4E7F2
:100840003620F2E73720F0E73820EEE73920ECE7F2
:100850005220EAE74320E8E75020E6E74920E4E7B2
:100860004620E2E74F20E0E7F0B5D6464F46464641
:10087000C0B582B0D24B1B6880225201934205D290
:10088000D04A116880225201914206D31B0ACC4AF9
:100890001360CC4A13681B0A13600027CCE03900B0
:1008A000C94805F007FA13232374123B6374009AB6
:1008B000019BA263E363DCE0C44B994200D8FAE0F9
:1008C0003900C34805F0F6F901231900A2689140E8
:1008D000D022120691611900E068814091614122A5
:1008E000A3542168627908680432934003430B6083
:1008F000E1E0B84B994200D8EFE03900B64805F086
:10090000D9F900232374E8E0AE4A13680133136079
:1009100091E0256860796A680100083101238B4005
:100920001A42F8D18800455900F046FF009A019B11
:10093000226363634022A35C0133A354412300225A
:10094000E254D8E0002D04D09E4A136801331360AE
:1009500071E09B4A13680133136000F02DFF256896
:1009600060796A680100083101238B401A42F8D18E
:10097000880045594022A35C0133A354009A019B8F
:100980002263636341230022E254B4E00123A2689E
:100990009340D02212069361B8E039008F4805F0E9
:1009A00089F9082323748E4B4A4652681A4204D1AF
:1009B0000023E36201336374B3E000224B469A7173
:1009C0005A710123E1688B40D02109068B61F10047
:1009D000844B5B189A715A7132003900824805F0D5
:1009E00069F9E5E76F212800FFF790FE002820D085
:1009F000022323740023E3622B006F2239007B481B
:100A000005F058F915E055212800FFF77FFE002872
:100A100000D08EE0256824793520FFF799FE6A68BA
:100A20002100103101238B401342F8D10434A4007B
:100A3000605100F0DFFE0137032F01DD00F01EFCE6
:100A400002F016F900900191FA00D419E400684B05
:100A5000E418644B914699444A46D679F200984688
:100A60009044237C002B04D14B469B79002B00D073
:100A700015E7226823795168103301252800984032
:100A800003000B409A466379526808339D40154035
:100A90004123E35C002B0ED1237C002B0BD1009A69
:100AA000019B206B616B121A8B411100002B00D04F
:100AB00006E700D100E7237C002B0ED0637C002BDF
:100AC0000BD1009A019B206B616B121A8B411100B4
:100AD000002B00D011E700D10BE7637C002B00D185
:100AE00030E75346002B00D00EE7002D00D110E771
:100AF00000F062FE3F4D4023E35C802B00D845E7C9
:100B00000123A2689340D022120653615F2128007E
:100B1000FFF7FCFD8246002803D0237C082B00D081
:100B20003BE7227C172A00D983E793003249CB5850
:100B30009F46032323743900304805F0BBF8272370
:100B40000022E254013B2032E25463E76F21280087
:100B5000FFF7DCFD00280FD1256824793F20FFF73F
:100B6000F7FD6A682100103101238B401342F8D150
:100B70000434A40060515CE7022323743900204848
:100B800005F098F8E8E76F212800FFF7BFFD00287F
:100B90000FD1256824793F20FFF7DAFD6A6821002C
:100BA000103101238B401342F8D10434A40060516A
:100BB0003FE70F2323743900124805F07BF8E8E77C
:100BC000B4DB01209CDB0120C099001040420F00E3
:100BD000F0990010404B4C00209A0010509A0010E1
:100BE00000FFFF00900600207C9A0010A49A0010DD
:100BF000B0060020AAAAAAAA789E0010DC9A0010CB
:100C0000FC9A0010349B001055212800FFF77EFD50
:100C100000280FD1256824793520FFF799FD6A68EF
:100C20002100103101238B401342F8D10434A40079
:100C30006051FEE6112323743900CB4805F03AF8E1
:100C4000E8E74B465B79002B2ED02623E35C432B51
:100C500033D02823E35C002B49D055212800FFF72F
:100C600055FD002837D1C14B4A461360012313714B
:100C7000F200BF4B9B181B79002B00D1D9E62568E9
:100C800020791300BA4A9C586A6801001031012388
:100C90008B401342F8D1043080004451F600B44B2D
:100CA0009B1900221A71C4E60333237424330022F3
:100CB000E254013B2032E254BDE61B3BE35C002BD7
:100CC000C7D1053323743900AA4804F0F3FF262363
:100CD0002022E254BDE72623E05C04F085FF2823B0
:100CE0000022E2542732A35C0133A354BBE728005F
:100CF000FFF737FD2028B6D02623E0540233012227
:100D0000E254B0E76F212800FFF700FD00280FD163
:100D1000256824793F20FFF71BFD6A682100103108
:100D200001238B401342F8D10434A400605180E6C3
:100D3000022323743900904804F0BCFFE8E726231F
:100D4000E35C522B03D12821615C002923D0432B83
:100D50002DD02823E35C002B05D055212800FFF778
:100D6000D5FC002863D12800FFF7FBFC202804D025
:100D70002623E05402330122E254256820796A6870
:100D80000100103101238B401342F8D10430800060
:100D90007A4B43514DE63900794804F08BFF172315
:100DA00023740023636426332022E25443E61B3B72
:100DB000E35C002BCDD1A37C312B0DD0322B31D075
:100DC000332B2AD0342B24D026232022E254103B6C
:100DD000237400236364BCE70B3B2022E25400220F
:100DE0004B46DA71012199712723E35CE318002057
:100DF0009874D2005E4B9A18D77191710B232374AB
:100E00004B46DB792200123239005E4804F052FF73
:100E10009FE726232021E154E2E726232022E25403
:100E20001E3ADDE726232022E2541F3AD8E7262681
:100E3000A05D04F0D9FE2722A35CA05DE1188874B0
:100E40002821002060540133A3548CE7636C4E4A80
:100E5000934201D914222274256820795A1C6264B5
:100E60009B004A4A9C586A680100103101238B405C
:100E70001342F8D1043080004451DAE5636C444AEF
:100E8000934201D903222274256820795A1C626496
:100E90009B00404A9C586A680100103101238B4036
:100EA0001342F8D1043080004451C2E52823E35CAA
:100EB000002B05D055212800FFF728FC00281BD166
:100EC0002800FFF74EFC202804D02623E0540233EC
:100ED0000122E2544023E35C312B1DD825682079A0
:100EE0006A680100103101238B401342F8D10430AD
:100EF0008000224B43519CE52626A25D39002648FE
:100F000004F0D8FE00232822A354013AA35403334B
:100F100023741D33A355D3E7256820796A6801003F
:100F2000103101238B401342F8D1043080000F4B65
:100F300043517EE54B469B79002B01D1143323743A
:100F40004B465B79002B01D005232374256820795B
:100F50006A680100103101238B401342F8D104303C
:100F60008000024B435164E56C9B0010AAAAAAAA18
:100F700090060020949B0010C89B0010AA14EBFF61
:100F8000F89B0010149C001002140000D0070020F1
:100F90002A5B0000DC5700204C9C00103521280003
:100FA000FFF7B4FB002824D1009A019BA06BE16BF2
:100FB000121A8B411100002B03D10AD1B24B994276
:100FC00007D900234A469371F600B04A92199371EB
:100FD0002374256824792D20FFF7BAFB6A68210065
:100FE000103101238B401342F8D10434A400605126
:100FF0001FE5062323743900A54804F05BFE002397
:10100000E3626374D0E72B212800FFF77FFB002801
:101010001BD14B469B79002B2AD04023E35C802BCD
:1010200033D90123E2689340D02212065361256828
:1010300020796A680100103101238B401342F8D1F6
:1010400004308000934B4351F3E4052323740125BE
:101050004B465D71F6008D4B9B195D7139008E48D2
:1010600004F028FEE3689D40D0231B065D61D0E7B5
:1010700039008A4804F01EFE0C2323740B3BE268FF
:101080009340D02212069361C7E70123E2689340A0
:10109000D02212069361CAE700212800FFF736FB31
:1010A00000280FD1256824790320FFF751FB6A68D7
:1010B0002100103101238B401342F8D10434A400E5
:1010C0006051B6E4042323743900754804F0F2FD3E
:1010D0000023E362E6E7E36A322B11D80133E362CF
:1010E000256824790020FFF733FB6A68210010315E
:1010F00001238B401342F8D10434A400605198E4DA
:1011000007232374674804F0A3FDE9E7E36A322B61
:101110000FD9002525743900634804F0CBFD6574B0
:10112000206861790368043101228A401343036017
:101130007FE40133E362256824792B20FFF708FB65
:101140006A682100103101238B401342F8D1043426
:10115000A40060516DE44B465B79002B31D0112126
:101160002800FFF7D3FA002834D16F212800FFF7B9
:10117000CDFA002835D101231900E2689140D02230
:10118000120651614A4615601371F2003F4B9B18DD
:101190001B79002B00D14CE42568207913003B4AD1
:1011A0009C586A680100103101238B401342F8D12A
:1011B000043080004451F300344AD31800221A71DD
:1011C00037E410332374E2680F3B9340D0221206B9
:1011D000936130E43900354804F06CFD1223237428
:1011E00029E43900324804F065FD152323740023F7
:1011F0004A46537193714246537193711BE46F21B8
:101200002800FFF783FA002810D1256824793F20B1
:10121000FFF79EFA6A682100103101238B401342C8
:10122000F8D10434A4006051FFF703FC0D232374AC
:101230003900204804F03EFD00236374E5E753467F
:10124000002B10D1256824793520FFF781FA6A68D0
:101250002100103101238B401342F8D10434A40043
:101260006051FFF7E6FB3900134804F023FD082323
:101270002374073B63740023E362E3E702B0E0BC3E
:10128000BA46B146A846F0BD404B4C00900600203F
:10129000789C0010AAAAAAAAB49C0010EC9C00108A
:1012A000249D00105C9D0010749D00109C9D0010FA
:1012B000CC9D0010089E0010389E0010F0B5DE4650
:1012C00057464E464546E0B591B0A64EA64C310075
:1012D000200007F00BFC0690A44D2900200007F029
:1012E00005FC07000790A24C3100200007F0FEFB30
:1012F00004902900200007F0F9FB059006999D480D
:1013000004F0D8FC39009C4804F0D4FC002469E0C7
:10131000079B9946069B9A4673E00621A1E00621A9
:10132000404600F09FFA102200210CA804F06AFB4E
:1013300080277F020C97F8235B020D938023DB024A
:101340000E93C0231B030E9310220CA908A804F0CF
:101350005FFB4B46591D4A460932099B0393874B55
:1013600003980340C9010B4312031343099310224E
:1013700008A90CA804F04CFB0F9B0393804B039A25
:1013800013404246D20313430F930D9B03937D4AB0
:101390001A4043461B0613430D930E9B03937A4B4F
:1013A000039A13401F430E97BF00BF0880231B06FC
:1013B0001F430E97754B0C930CAB4A463100280027
:1013C00007F01EFC73009B19DB00EB18D833704A42
:1013D0001A60704A1A602A680123B3409A43134383
:1013E0002B600134032C00DDB4E0E3001B19DB00AB
:1013F000694A9A585C4B9A428AD0059B9946049B4D
:101400009A46654EE5002F19FF00F719B86800F0FD
:101410005BFA01239846BA689340D022120693469D
:101420005362F86800F050FA4346FA6893405A460F
:1014300053622D19ED00AD593E79BF794346BB404B
:1014400000223100280007F06DFB434600933A006C
:101450003100280007F09CFB434B9D4200D15CE724
:101460000721380000F0FEF9102200210CA804F03A
:10147000C9FA80235B020C93F8235B020D9380234F
:10148000DB020E93C0231B030E9310220CA908A8A5
:1014900004F0BEFA52460932099B0393374B039975
:1014A0000B405146C9010B431203134309930B9A96
:1014B0000392D200D2088021C90588460A430B92C4
:1014C000364A13400B430993102208A90CA804F0D4
:1014D0009FFA0F9B0393324B039A1340BF021F43A3
:1014E0000F970E9B03932F4A1A4080239B021343AE
:1014F0000E939B009B08424613430E93234B0C9381
:101500000CAB52463100280007F07AFB73009B19A0
:10151000DB00EB18D833244A1A602A680123B34051
:101520009A4313432B601C4AE3001919C9008D58D4
:1015300053185E79DB7998460023009301334246C5
:101540003100280007F024FB074B9D4200D1E6E65E
:101550000721E5E611B0F0BCBB46B246A946A0465D
:10156000F0BDC046349F001000002050189F0010AE
:1015700000003050D89E0010F89E00107F00FEFF43
:10158000FF7FF0FFFFFFFFE0FFFF0AFE0024F400F3
:1015900021E0000040E00000B0060020FFFFFF9FB8
:1015A000FF83FFFFFFFFF5C1A080000070B590B082
:1015B0004F4C2000FEF75EFF4E4B009301230022AC
:1015C00000212000FFF738F84B4B0093012309223C
:1015D00000212000FFF730F800241DE0474B186879
:1015E0000290187902AB1871072A57D0444B059323
:1015F000651C08AE05AB009302AB2A0041493000E0
:1016000003F008FA0234E2001219009601230021C7
:101610003748FFF711F82C00032C45DCE1000919CD
:10162000C900394BC9180A7C172A34D893003748A7
:10163000C3589F46364B18680290187902AB187150
:10164000D2E702A8334B60CB60C0CDE702A8324B93
:1016500060CB60C0C8E702A8304B1D6802959D882A
:1016600085809B798371BFE702A82D4B1D68029589
:101670009D8885809B798371B6E702A8294B60CB52
:1016800060C01B780370AFE702A8274B60CB60C037
:101690001B780370A8E7254B0293A5E712310232AD
:1016A00005A807F0C9FEA3E7114C362500950823CD
:1016B000122208212000FEF7F8FE00954223122294
:1016C00042212000FEF7F1FE00F0B6F8020008AD5E
:1016D0001749280003F09EF90095012338220021C4
:1016E0002000FEF7A9FF2000FEF7B2FF10B070BD8A
:1016F00030D50120509F0010649F00107C9F001087
:101700006E2F6100AC9F0010B0060020E89F001013
:10171000849F00108C9F0010949F00109C9F0010CD
:10172000A49F0010D09F0010DC9F00102D2D2D00D5
:10173000B89F001010B582B0104C1149200007F07E
:1017400005F90321082000F08DF80321092000F09D
:1017500089F800220121082000F09CF800220121D4
:10176000092000F097F807480023037200943C33E7
:1017700040228021FEF7F6FD02B010BD64C50120B5
:10178000801A060030D50120094B1B68B0221202D6
:10179000934205D2074A1168B0221202914206D341
:1017A00004490A68120A0A601B0A014A136070475A
:1017B00060D90120BCDB012010B5094B9B6A094AA6
:1017C0001360094A12689B1A084A11688C466344E0
:1017D0001360074B01221A70FFF7D6FF10BDC046F9
:1017E00000400540C4DB0120C0DB012060D901209E
:1017F000CCDB012010B50B4B1B78002B00D110BDAA
:10180000084B00221A70084B9B6A084A1360084A6A
:1018100012689B1A074A11688C4663441360FFF7ED
:10182000B3FFECE7CCDB012000400540C0DB01202A
:10183000C4DB0120BCDB012010B5084B1868084B45
:101840001C680419FA2292000023002103F0ACFF67
:101850002200002303F0A6F9C0B210BDBCDB0120BA
:1018600060D9012010B58300084A944663441C687F
:1018700040226240C02414408022520113431C6065
:10188000C000034B9C466044416010BD04C0014051
:101890000040014080000B4B9C46604400290DD065
:1018A0000823002A0CD004221343026853400C2260
:1018B0001340802252011043036070470023F0E779
:1018C0000022F1E704C0014010B501238340D0227B
:1018D0001206936293610521FFF7C4FF10BD00005B
:1018E000EFF3108072B6034B1B68002BFBD0BFF3E5
:1018F0005F8F70472C0100D0BFF35F8F024B002237
:101900001A6080F3108870472C0100D0F8B50600EB
:101910000C001500FFF7E4FFE308F718F15C07225D
:101920002240012393400B4205D1DBB20B433B70B5
:10193000FFF7E2FFF8BD2100280001F091FDF0B5AE
:1019400083B00600019114001F00FFF7C9FF00E0FB
:101950000134BC420CD8E308F518F35C07212140A0
:1019600001228A401A42F3D1D2B21A432A7001E00E
:1019700001246442FFF7C0FF002C02DB200003B00B
:10198000F0BD019B002BF9D0089801F069FD000023
:10199000034B1B6802201840431E9841C0B2704799
:1019A00000C00640002307E0054A9A189200BFF3E2
:1019B0005F8F0021116001331F2BF5D97047C0469E
:1019C00040000034054A1078431CDBB21370172B1B
:1019D00002D9130010221A707047C0468CC401202F
:1019E00000B583B00100044B00931F231822034865
:1019F000FFF7A5FF03B000BD48A0001098D4012058
:101A0000074B9B68103080001950BFF35F8FBFF306
:101A10005F8F044B0021196082F310887047C04625
:101A200000ED00E0240100D010B5091A081F0A4B90
:101A30009C466144094A914208D8C30706D4401025
:101A40004005400D064B184380B210BD054B064AB9
:101A50009921064801F06AFCFC070000FE0F000017
:101A600000E0FFFF64A00010C4A2001094A00010CA
:101A700010B5091A04394C08090B08D14905490D5C
:101A8000064A11430180064B2343438010BD054B9A
:101A9000054AA121054801F049FCC04600F0FFFFBE
:101AA00000F8FFFFD4A0001098A2001094A000102E
:101AB00001238340034A10681840431E9841C0B276
:101AC0007047C04600E100E0002904D0034B1860D5
:101AD000034B18607047034B1860FBE780E200E09F
:101AE00000E100E080E100E010B501238340180030
:101AF000FFF7EAFF10BD000001238340014A136095
:101B00007047C04600E200E0024B9B681030800046
:101B1000C058704700ED00E010B5FFF7F5FF002852
:101B200005D0054BC01A2F2803D8012010BD002076
:101B3000FCE70020FAE7C04690C4012070B504001D
:101B40000D00EFF3108672B60C4B1B68002BFBD018
:101B5000BFF35F8F2000FFF7D7FF094B984201D0FA
:101B6000A84205D1320029002000FFF749FF70BDCF
:101B7000044B054A7C21054801F0D8FB240100D024
:101B8000CD010010E4A00010F8A2001094A00010F5
:101B9000F0B5DE4657464E464546E0B589B081462B
:101BA00001911500EFF3108A72B6744B1B68002B7D
:101BB000FBD0BFF35F8F724B0027DF57002F40DB56
:101BC0007C00E419A4006F4824180622A2566C4B2E
:101BD0001A706D4B9A684B4610339B00D358984649
:101BE0001E001B1A2F2B38D9684B98452FD105AEF4
:101BF000674B33807B009B46D8198000614B984629
:101C0000404402306349FFF70FFF7080624BB3809E
:101C1000FF23B371F571019B07935F44BF004744F5
:101C20000ECE0EC701231C43A046524641464846ED
:101C3000FFF7E6FE09B0F0BCBB46B246A946A04697
:101C4000F0BD564B564ACD21564801F06FFB564B1E
:101C5000534AD421534801F069FBC04340440C214E
:101C600002F05EFF002912D101239E43B3463300E8
:101C70000026DA79AA4211D90621595600290CDB2F
:101C80004A00521892001E003E4B9B18F1E7474B4A
:101C9000434AE021434801F049FB1E00002E3BD09F
:101CA00005AB434A1A80813A5A800623F3560293C1
:101CB000002B18DABD20000205AB9B469880029AE3
:101CC0009A71DD71019A0792301D2100FFF7ACFE79
:101CD000B080B7717B00DB199B002A4FFF185B4671
:101CE00007CB07C7A1E77800C0198000254BC018B3
:101CF0000430321DB388D90A1C2907D15B05591558
:101D0000023149005118FFF78FFED5E7294B2A4AC7
:101D1000A721244801F00AFB05AE1D4B33807B0050
:101D20000293D8198000174A904602004244039259
:101D3000901C1849FFF778FE7080039A101D5946D1
:101D4000FFF772FEB0801D4B5A464146521A52416F
:101D500053431B0DB371F571019A0792029B9C4688
:101D60006744BF0047440ECE0EC7114B5A4613803E
:101D7000813B538001231C43A04656E7240100D039
:101D8000CDDB012090C4012000ED00E0CD0100106A
:101D900000A1FFFFC0C4012000BDFFFF1CA1001077
:101DA000E0A2001094A0001044A100106CA100104B
:101DB00001480000E0A10010D0A20010AAAA000073
:101DC000F0B5CE46474680B583B006000D00EFF370
:101DD000108872B6564B1B68002BFBD0BFF35F8F89
:101DE000544B9A6834001034A300D758524B9F428A
:101DF00007D0AF4200D199E00197504BFB1A2F2B2F
:101E000009D9424639003000FFF7FAFD03B0C0BCE3
:101E1000B946B046F0BD3000FFF74AFE81460021CA
:101E20003000FFF761FEBFF35F8FFEF71CFA00285A
:101E300001D0844211D10123019C9C430022A3685C
:101E4000AB4212D00622A256002A0DDB53009B188B
:101E50009B002200394CE418F1E72C21384B394A19
:101E6000FF31394801F062FA2200AB4257D1062512
:101E70006557002D39DB6B005B199A002F4B9B18BF
:101E80009A68A260DA79E27106229A56A2719B7969
:101E90005BB2002B10DABD200002A0806B005B1942
:101EA0009B00264AD318294A117899711570494622
:101EB0003000FFF719FEA4E7201D6B005B199B00A3
:101EC0001E4A9B181A1D9B88D90A1C2907D15B053D
:101ED0005B15023359005118FFF7A6FDDDE71C4BD7
:101EE0001C4AA721184801F021FA002812D1002A23
:101EF0000ED0FF239371184B9380144A1378A3716B
:101F0000164B0E49641A644163431B0D1370CEE7F0
:101F1000094FF2E7201D1249FFF7AAFDC7E760212C
:101F2000104B084AFF31084801F000FA024F68E7F9
:101F3000240100D000ED00E0CD01001090C401208C
:101F4000F8A10010B0A2001094A00010CDDB012079
:101F5000E0A10010D0A2001000BDFFFFAAAA00005F
:101F6000CAC401201CA2001070B50400012606435B
:101F70002D4BF31A2F2B28D8FEF775F900282BD0FC
:101F8000EFF3108C72B6294B1B68002BFBD0BFF30C
:101F90005F8F274D22002449521A524155432D0D7F
:101FA0006DB2244B9B6880001B58B3421BD00022AB
:101FB000032A32D853009B189B001B49CB189B79EE
:101FC0005BB2AB421FD00132F2E7C2211A4B1B4A6F
:101FD00049001B4801F0AAF988211A4B174AFF3122
:101FE000174801F0A3F9134B9B68174A1A50174B77
:101FF0001A78A2711D70BFF35F8F0C4B00221A601C
:102000008CF3108870BD080053009918890041189E
:10201000FF268E710E4A8A80E9E7CC210D4B074AD4
:102020004900074801F082F990C40120240100D042
:10203000AAAA000000ED00E024A200107CA200107B
:1020400094A000104CA20010CD010010CDDB0120A7
:1020500000BDFFFF58A200100022044B02E004491B
:1020600002C30132072AFAD97047C04600E400E0F3
:102070008080808000B583B00100D0231B061B68E0
:102080000648C018064B009305230022FFF757FCB3
:10209000002801DB1F23181A03B000BDB8DB0120A4
:1020A00060A20010024B9C466144890001607047A9
:1020B0004000003470B505000C00080000F0CCFDB5
:1020C000200000F0B1FE0849200000F0F1FDFFF70C
:1020D00079FC064B9C466044800068602C75A40027
:1020E000034BE55070BDC046F9230010400000349A
:1020F00064D901200A4B1A68EFF3108172B6136895
:10210000002BFCD0BFF35F8F054B1B68BFF35F8FC5
:1021100000221A6081F3108840BF00200021704720
:1021200080DB012010B5002922D003681B7B994277
:102130001ED8174B9C466144090183689C46614444
:102140000C684968002A19D003681B7B9A4215D88D
:1021500083680F488446624412019A1810685368D5
:10216000020001208B4201D80ED00020C0B210BD69
:10217000084B094A3B21094801F0D8F8054B064AAB
:102180003B21064801F0D2F8A242EFD8EDE7C04665
:10219000FFFFFF0F60A3001024A6001028A300106B
:1021A00010B500291ED0037B99421BD84B005B1849
:1021B000033B0468A4466344002919D0002A1DD0BB
:1021C000914221D0002A25D0047BA24222D8046863
:1021D00050008018033820188170197800291FD109
:1021E0001A7010BD104B114A6821114801F09EF879
:1021F000104B114A6F310E4801F098F80F4B0E4A00
:1022000070210B4801F092F80D4B0B4A71210848E0
:1022100001F08CF8044B054A6821054801F086F866
:1022200041701A70DDE7C04694A3001090A600101C
:10223000B0A30010FCA300106CA6001008A40010AE
:1022400014A4001070B506000D001400002914D06D
:10225000002A14D0806873689847002806D02200AE
:1022600029003000FFF79CFF280007E02A0021002A
:102270003000FFF795FF200000E0100070BD08005F
:10228000FCE70000F0B583B00500009201930AABB3
:102290001C780BAB1F78002C26D003685A7B944225
:1022A00007D10123002B19D1002C3BD1200003B012
:1022B000F0BD002C0CD01A7B944209D81A68630038
:1022C0001B19033BD3189B78002BEBD00123E9E7C4
:1022D0003E4B3F4A68213F4801F028F83E4B3F4AB9
:1022E00065213F4801F022F803689C7B002CDBD07D
:1022F00012D01A7B94420FD862001219033A19685F
:102300008C46624451789973002900D1D973002317
:10231000937053701370C7E72C4B2D4A68212D48DA
:1023200001F004F8002C3AD02B681B7B9C4236D875
:102330002C4BE3181B01AA6894466344009A1A6068
:10234000019A5A60089A9A60099ADA602E68002CFD
:102350002BD030D0337B9C422DD863001B19033B1C
:1023600032689446634400229A705A701A70717BE6
:1023700022003000FFF766FF7073844200D095E7BB
:10238000287D009A019B00F0DBFC061E01D0002F87
:1023900017D00C9B002B00D188E71E7086E7124BEC
:1023A000124A3B210E4800F0C1FF114B114AA521F2
:1023B000084800F0BBFF054B054A6821054800F0BE
:1023C000B5FF2868210000F0E3FEE2E794A30010C7
:1023D00090A60010B0A300102CA400109CA6001022
:1023E00028A30010FFFFFF0F60A3001024A6001019
:1023F00024A3001080A60010F0B5DE4657464E46D6
:102400004546E0B58BB00990002308938200B24B9B
:10241000D658370032E0B14BB14A3F21B14800F005
:1024200085FFB14BB14A3B21B14800F07FFFB14B72
:10243000B14A8C21AE4800F079FFB04BAE4A9021F2
:10244000AB4800F073FFA84BAD4A4021A84800F00C
:102450006DFF2A686B68099800F072FC00239A46A9
:1024600098467B68BFF35F8F00221A6086F310885E
:102470004346002B51D1002800D126E100F0F8FBA3
:1024800002000B1EC7DB0020002106900791786830
:10249000EFF3108672B601680029FCD0BFF35F8F9E
:1024A000396888464C7B002C32D0BAD0097B8C42EC
:1024B000B7D8944965182D01B9688C4665442868D9
:1024C0006968801A99410029C3DC01D10028C0D174
:1024D0000021404600F052FEA042A8D12A686B6855
:1024E00006920793AB689846EB689A464346002BE2
:1024F000A3D0002CA7D03B681B7B9C42A3D8631EB3
:10250000FA68D35C08931B02184338610020A8E7DF
:1025100000239A4698460020A3E7089B1B0223430A
:10252000994651461800C04705000E007A68EFF33F
:10253000108B72B6136859424B41D9B2002BF9D1B6
:10254000BFF35F8F002E26DB002E52DD3B69002B90
:1025500053D04B4572D100F08BFB02000B1E73DB96
:102560000100180052197341984202D804D19142D7
:1025700002D901225242D317002B6BDB00210491B8
:102580000131039102945146019141460091380076
:10259000FFF778FE49E03B69002BD5D04B451CD1B5
:1025A000069A079B10001900521BB341994202D8AA
:1025B00004D1904202D901225242D317002B12DBE0
:1025C0000021049101310391029451460191414649
:1025D00000913800FFF756FE27E04B4B464A9F21FB
:1025E000434800F0A3FE3D4B3D4A3F213D4800F0EB
:1025F0009DFE002E01D1002DA8D13A68002C45D0B7
:10260000537B9C422CD1012100293FD1D37B002B4D
:1026100042D1D473002C52D03B681B7B9C424ED8D5
:10262000FA68013C135D0133135500233B617A685E
:10263000BFF35F8F13608BF310881FE7324B2E4A76
:10264000A2212B4800F072FE244B254A3F21254849
:1026500000F06CFE214B224A3F21224800F066FE2A
:10266000002C0DD0137B9C420AD863001B19033B3E
:102670001068844663449B78002BC5D00121C3E7D2
:10268000224B234A6821234800F050FE224B234A64
:10269000F621204800F04AFE002B0AD0117B8B4225
:1026A00007D85900CB18033B11688C4663445C7013
:1026B000AFE7164B164A6821164800F037FE0A4B62
:1026C0000F4A40210A4800F031FE0BB0F0BCBB4677
:1026D000B246A946A046F0BD64D9012054A400101A
:1026E000F0A5001070A4001060A3001024A6001034
:1026F00028A30010B8A4001008A60010D0A4001051
:1027000048A60010FFFFFF0FDCA4001094A30010E8
:1027100090A60010B0A3001018A500105CA6001031
:1027200010B50A4B5B68002B04D00A210848FFF75C
:10273000B9FC10BD054C2300064A1021206800F0AA
:102740003DFC03212000FFF7B5FCEEE7D8C40120D3
:1027500080DB01202521001010B5064B5B68002BA3
:1027600001D0044810BD044B044A5C21044800F029
:10277000DDFDC046D8C401203CA5001030A60010E5
:1027800028A30010F0B5DE4657464E464546E0B554
:102790008BB0804616001F00149B9A46159B9946E5
:1027A00016AB1B789B461F2302AA94466344002263
:1027B0001A7032E0002809D042461268127B90421B
:1027C00004D8421E4146C9688A5C48E0434B444AEB
:1027D0004021444800F0AAFD0798002B75D05B46C5
:1027E000002B72D04946D04704000D0003000B4374
:1027F00000D171E0002946DB00F03AFA06000F1E16
:1028000055DB36196F41B94202D804D1B04202D922
:1028100001267642F717002F4FDB43465A68EFF345
:10282000108472B6136859424B41D9B20791002BFC
:10283000F8D1BFF35F8F1F3302AA94466344049319
:102840000023039302934B460193534600933200B7
:102850003B004046FFF716FD031EABD10200414688
:102860004968BFF35F8F00250D6084F31088002B4B
:1028700029D01F2302A98C4663441B78002BABD1BF
:1028800012021043A9E732003B00361BAF41BB42A6
:1028900002D804D1B24202D901267642F717002F9E
:1028A000BBDA114B114A3F21114800F03FFD0E4B9E
:1028B0000E4A3F210E4800F039FD0B4B0B4A3F21D9
:1028C0000B4800F033FD012040420BB0F0BCBB468A
:1028D000B246A946A046F0BD0798F6E760A30010EF
:1028E00048A6001028A3001054A40010F0A5001062
:1028F00070A40010F8B504004268EFF3108572B6BA
:10290000136858424341D8B2002BF9D1BFF35F8F0F
:10291000CBB22268567BB3421BD10120002848D09D
:10292000206988422BD0090AC9B2002B2ED020681A
:10293000007B83422AD8581EE668305C88422BD040
:1029400000206368BFF35F8F00221A6085F3108850
:10295000F8BD002B0DD0167BB3420AD85E00F618E6
:10296000033E1768BC466644B678002ED6D00120D8
:10297000D4E7134B134A6821134800F0D7FC852194
:10298000124B134A4900134800F0D0FC124B134A73
:102990004021104800F0CAFC1900100000F0F8FBBC
:1029A0000028CED112210E4B094AFF31094800F010
:1029B000BDFC23698B42C4D100232361C1E7C0461B
:1029C00094A3001090A60010B0A3001060A5001002
:1029D000D8A5001028A3001060A3001048A600107E
:1029E00084A50010F0B587B006000F00FDF73BFC92
:1029F00000281FD106246442E517A4197D41BD4279
:102A000002D803D1B44201D900240025002D14DBE3
:102A10000494059500F02CF902000B1E13DBA41A98
:102A20009D41002D17DC14D03000390000F02CF946
:102A300007B0F0BD234800F013FD234B234A3F218C
:102A4000234800F073FC204B204A3F21204800F02F
:102A50006DFC002CE8D0FFF77FFE0023029301936A
:102A60001C4B0093049A059BFFF78CFE002818DA94
:102A7000DAE7002300E00023002BD5D1164B1A68BB
:102A8000EFF3108172B61368002BFCD0BFF35F8F99
:102A9000114B1B68BFF35F8F00221A6081F310880F
:102AA00020BF0499059A0D4B5B6A9A42E3D80B4804
:102AB000806A884203D29A42DBD00123DCE70123FB
:102AC000DAE7C04688A5001054A40010F0A5001055
:102AD00070A40010F520001080DB012000400540AC
:102AE000F8B504000D0000F0C3F802000B1E10DB67
:102AF00020002900801859418B4202D804D182421B
:102B000002D901204042C117002908DBFFF76AFF04
:102B1000F8BD064B064A3F21064800F007FC034B70
:102B2000034A3F21034800F001FCC04654A40010B2
:102B3000F0A5001070A4001010B5FA229200002336
:102B4000002102F031FEFFF7CBFF10BD70B584B05D
:102B500006000C00FFF700FE002302930193194BBF
:102B6000009332002300FFF70DFE051E11DD20BF8C
:102B7000FFF7F2FD2900FFF7BDFE134B5B6A9C4295
:102B80001BD8114A926AB2421AD29C4213D0012039
:102B900014E00D4B5B6A9C4209D80B4A926AB24220
:102BA00007D29C4201D0012008E0002006E000206E
:102BB00004E0012002E0002000E0002004B070BD2D
:102BC0000120FBE7F52000100040054070B5EFF351
:102BD00005833F2018401038EFF3108C72B6194B64
:102BE0001B68002BFBD0BFF35F8F012319008140CE
:102BF000154A5163154A12781400C440234214D078
:102C0000114B5C6A8300124D5B599C4206D38300D2
:102C1000104C1B598A430D490A7007E00A4A031DEC
:102C20009B0099589950002300E00023BFF35F8F69
:102C3000044A002111608CF31088002B00D09847C3
:102C400070BDC046280100D000400540D1DB012006
:102C50008CDB012088D3012010B50100024A034813
:102C6000FEF754FE10BDC046B4A60010CBDB012019
:102C7000044B5B6A034A906A1900536A9942F9D17E
:102C80007047C04600400540084B5B6A01E0074BB7
:102C90005B6A8B42FBD301E0044B5B6A8B4203D13E
:102CA000024B9B6A8342F7D37047C0460040054001
:102CB00070B504000D00EFF3108672B61B4B1B6855
:102CC000002BFBD0BFF35F8F002D1CD02000FEF740
:102CD0001BFF174B83420BD019002000FEF72EFF7D
:102CE00001212000FEF700FF0123A340114A1360D9
:102CF000A400114BE550BFF35F8F0C4B00221A600C
:102D000086F3108870BDA2000B4B0021D150012228
:102D1000A2400A490B7893430B7005492000FFF746
:102D20004FF800212000FEF7DFFEE4E7280100D085
:102D3000CD2B00103860054088D30120D1DB012065
:102D4000F0B5DE4600B584B00400150001921E0007
:102D50000293FFF78DFF03958E4202D84ED1854234
:102D60004CD9EFF3108B72B6274B1B68002BFBD0AE
:102D7000BFF35F8F254A17780125A540EBB23B438F
:102D80001370234B5D63221D92000199D150A20064
:102D90002049029850501B6A2B4212D11C4B1B6CCD
:102DA0002B4208D00020BFF35F8F174B00221A6020
:102DB0008BF3108823E0184B184AC121184800F003
:102DC000B5FAFFF755FF8E4214D802D1039B834218
:102DD00010D80E4B1B78BB420ED00D4B1D625D63AD
:102DE0001F2004400123A3400E4A1360074B1F70AD
:102DF0001E38D8E70020D6E70120D4E7012004B030
:102E000080BCBB46F0BDC046280100D0D1DB01200C
:102E1000004005408CDB0120D8A6001040A7001020
:102E2000FCA6001080E200E0EFF3108C72B60B4BB2
:102E30001B68002BFBD0BFF35F8F01238340084A40
:102E4000136208490A789A430A70BFF35F8F034BF5
:102E500000221A608CF310887047C046280100D009
:102E600000400540D1DB012010B500291ED0037BB6
:102E700099421BD84B005B18033B0468A44663448B
:102E8000002919D0002A1DD0914221D0002A25D036
:102E9000047BA24222D8046850008018033820180E
:102EA0008170197800291FD11A7010BD104B114A7A
:102EB0006821114800F03AFA104B114A6F310E4860
:102EC00000F034FA0F4B0E4A70210B4800F02EFA36
:102ED0000D4B0B4A7121084800F028FA044B054AB3
:102EE0006821054800F022FA41701A70DDE7C046FB
:102EF00094A3001048A80010B0A30010FCA3001079
:102F000034A8001008A4001014A4001070B5060026
:102F10000D001400002914D0002A14D080687368B2
:102F20009847002806D0220029003000FFF79CFFB8
:102F3000280007E02A0021003000FFF795FF20005D
:102F400000E0100070BD0800FCE7000010B5002391
:102F5000437301338373037BC3730123027B9A4260
:102F600014D9002B0CD0027B934209D85A00D218F6
:102F7000033A01688C4662440133DBB25370EDE7DB
:102F80000B4B0C4A68210C4800F0D0F9002A09D0FC
:102F9000924207D8016853009A18033A8A1800230E
:102FA000537010BD024B034A6821034800F0BEF97C
:102FB00094A3001048A80010B0A3001010B501732E
:102FC00042608360FFF7C2FF10BD000070B50400CF
:102FD000081E00D170BD002934D0237B994231D81E
:102FE0004B005B18033B2268944663445A78002ADE
:102FF000F0D02DD0237B9A422AD853009B18033B54
:1030000021688C4663445D7800215970002825D0E2
:10301000237B984222D843001B18033B21688C462F
:1030200063440021597001002000FFF76FFF060084
:1030300029002000FFF7CAFF020031002000FFF73F
:1030400065FFC7E7084B094A6821094800F06EF997
:10305000054B064A6821064800F068F9024B034A0E
:103060006821034800F062F994A3001048A80010FA
:10307000B0A3001070B505000C001600002928D080
:103080002DD0037B99422AD84B005B18033B026882
:10309000944663445A78002A27D19A78002A2AD184
:1030A0001978FFF793FF0300002E03D0EA7B002A74
:1030B00027D1EC73002B37D1002C49D02B7B9C42BD
:1030C00046D82B6861000C19033C1C19002363705F
:1030D00070BD224B224A3821224800F027F9224BAA
:1030E000224A6821224800F021F9224B1C4A3A2149
:1030F0001C4800F01BF9204B194A3B21194800F0ED
:1031000015F9002A0AD0297B8A4207D851008A186B
:10311000033A29688C4662445470CAE7124B134A3A
:103120006821134800F002F9002B0BD02A7B934250
:1031300008D843001B18033B2A68944663440022C6
:103140009A70B9E7084B094A6821094800F0EEF87F
:10315000054B064A6821064800F0E8F85CA7001015
:1031600020A8001064A7001094A3001048A8001025
:10317000B0A300109CA70010C4A7001070B50400F5
:103180000A00457B2900FFF775FF6073280070BDBA
:1031900070B50400002967D0437B8B420ED0002914
:1031A00011D0037B99420ED84B005B18033B026899
:1031B000D0188378002B0CD1002056E00121FFF7B6
:1031C000DDFF012051E0294B294A6821294800F000
:1031D000ADF8002B20D0227B93421DD85A00D31883
:1031E000033B2268D2182568EB5C8B421AD0002B77
:1031F0001BD0227B934218D85A00D318033B226875
:10320000D21853788B4216D0002BF0D11A4B1B4AA0
:1032100067211B4800F08AF8144B154A68211548AD
:1032200000F084F84378137007E0104B104A6821CF
:10323000104800F07BF8437853700023837043708C
:1032400001222000FFF716FF0200617B814205D0BA
:103250002000FFF75BFE6073012006E0094B074A80
:103260006D21074800F062F8002070BD94A30010A3
:1032700048A80010B0A3001058A2001008A8001021
:1032800064A70010E8A7001010B50400FEF79AFB31
:1032900001002000FEF706FFFF232371BFF35F8FBD
:1032A00010BD10B50400FEF78DFB01002000FEF7F5
:1032B000F9FEFF23237100236371BFF35F8F10BDFD
:1032C000034B9C46614489000160BFF35F8F7047E8
:1032D0004000003410B504000120FEF781FB01001E
:1032E0002000FFF7EDFF10BD00BEFDE703000A4A16
:1032F0001268002A08D0084A1068C318074A9A4280
:1033000006D3054A13607047034A05491160F2E786
:1033100001204042F7E7C04650D5012000000420BC
:10332000D4DB012010B5FFF7DFFF000010B582B03D
:103330000C001900002A0CD0084B002A0BD0019277
:10334000009323000200064802F0B4FC0120FFF7BE
:10335000CBFF044BF1E7034AF1E7C0461CA900107C
:103360002CA90010BC97001070B52B4B2B4A1A608B
:103370002B4B2C4A1A602C4B9A682A4B9343FAD158
:103380002A4C01E008CC9847294B9C42FAD300F024
:1033900001F9234B274A1A60234B9B68DB43DB016F
:1033A000FAD1254B40229A675A671A67DA66234C8E
:1033B00009E0234B234A83212348FFF7B7FF20006E
:1033C000FFF762FF0834214B9C4209D22368002B8F
:1033D000F5D0012BEDD12000FFF763FF0834F2E7B1
:1033E0001B4CA1681B4DC022280002F011FBA560F8
:1033F000FCF739FF002800D000BEFEF7D3FAFEF735
:103400002BFEFFF78DF9144C01E008CC9847134BC5
:103410009C42FAD370BDC04600E00040BFCDFBFE29
:1034200000F00040FE7F3C0000C00040B8CD01200D
:10343000C8CD0120FFFFFF0100F00140A8CD012011
:103440005CA90010D0A900107CA90010B8CD012003
:1034500000ED00E000000020C8CD0120D0CD01200B
:103460000FB400B583B0084802F0F2FB049B002BB8
:1034700007D005A90191180002F0FAFB034802F0F9
:10348000E7FB0120FFF730FFC0A90010A09A001051
:10349000F8B5DE4657464E464546E0B505000F00F6
:1034A00092460A9A93424ED31A0E91461E020A9AE7
:1034B00000233000494601F075FB80466C0064191A
:1034C000A4002F4B9C4664446368834200D2606032
:1034D0002B1FDBB29B46012B3BD9C0239B0123430F
:1034E000802212011A60AB00264A9958002905D0A3
:1034F000506901F015FB01300138FDD153465A01E6
:1035000023685A40E0231A4080235B0123431A605A
:103510005A46012A28D980239B0123438022120185
:103520001A6043466360424600233000494601F07A
:1035300039FBAD00134B58510120F0BCBB46B246DD
:10354000A946A046F8BD104B104A2D211048FFF7A0
:10355000EDFE012FC1D1C0239B01234303221A603A
:10356000A368DB07FCD5C9E72168794003220A403C
:103570001A60A2680123BB401342FAD0CBE7C046D1
:10358000008000409CD40120E0A9001038AA00105F
:10359000F4A9001030B583B00C2000F021F9FEF73B
:1035A000F7F900280DD0002304E099002D4A2E4899
:1035B00088500133092BF8D92A4B2C4A5A6203B0A0
:1035C00030BD2B4B00229A6700F07CF9294B012279
:1035D0001A60274B5B6C012BFBD1274B03221A602F
:1035E000234B9B6B012BFBD1013300930433234A04
:1035F0000121234800F054F805230093214A0121BA
:10360000214800F04DF8214B0093002202210420B4
:10361000FFF73EFF1E4D00952B00002201210520E3
:10362000FFF736FF104C00942300002200210720F2
:10363000FFF72EFF00942300002200210820FFF74F
:1036400027FF0A4B00932300002200210920FFF7E7
:103650001FFF00952B00002200210620FFF718FF16
:10366000ADE7C0469CD40120006CDC021BB7000013
:10367000008000403CB0004030B00040002F68594E
:1036800000800240008C864700C00240001BB7004B
:10369000405973078000014BC05870479CD40120EB
:1036A000F0B5C64600B504000F0090461D000C2082
:1036B00001F036FA06003D4A42443D4B9A4243D857
:1036C00043011B1A9901C91AC9000918890140460A
:1036D00001F026FA0200103A98235B009A4239D88A
:1036E0006B1E062B3CD8069B013B062B38D8069B4D
:1036F0009D423BD343461A09B2423DD32D04069B5B
:103700001E0335432368002B3CDB2A4B9C424AD0E6
:1037100080225201284B1A60284B1A60284B9B6864
:1037200011009943FAD12760A060231DC0229201A5
:103730001A43212313602368002BFCDAE560082379
:10374000136080BCB846F0BD1E4B1F4A11211F48B4
:10375000FFF7ECFD1E4B1C4A19211C48FFF7E6FD44
:103760001C4B194A1C211948FFF7E0FD1A4B164A59
:1037700022211648FFF7DAFD184B134A252113487A
:10378000FFF7D4FD22683F231340BB42BDD1A3689D
:103790001B051B0D8342B8D1E368EE22D202134011
:1037A000AB42B2D1CDE780229201B3E780E84BD3A0
:1037B00080F8A93200C0024000E0004000F0004064
:1037C00000C0004048AA001084AB0010A8AA001056
:1037D000E8AA001004AB001050AB001068AB00105A
:1037E00080239B000343014AD36270470080054059
:1037F000024B1A68024B5A607047C04658D90120E4
:103800000080054010B50200164B8020C0051860EE
:10381000154B1648186000290AD0154BE021C90441
:103820001960002A09D1124B802212061A6010BDBD
:103830000C4BE021C9041960F3E753019B1A98006F
:10384000801800010B4B186080235B04984202D360
:10385000084B094A1A60FFF7CBFF054B8022D205BF
:103860001A60E4E700B0054008200140FCFF0100B9
:1038700000A0054058D90120FFFFFF0010B503004C
:1038800010000C4A8024E4051460002B0DD00122A6
:103890001343094A094CD461094C5C4014625162DB
:1038A00093620021FFF7AEFF10BD034B0022DA61E7
:1038B000F7E7C04600B0054000800540D3C007B020
:1038C0002D3FF84F064BAA2212011A602F22DA6010
:1038D000044B054A1A60024B5B68002BFBDA704709
:1038E000004002400060024000B0FA009A4200D25C
:1038F00088547047704710B5002802D00B6849689B
:10390000984710BD0100002007E083001B185B00F2
:10391000501C08601078C01830380A681378303BA3
:10392000DBB2092BF1D97047F0B5DE4657464E465B
:103930004546E0B583B093461F000C9B9A460D9C0C
:103940000E9B99460F9B9B0703D0B8460F000600BD
:1039500022E00192A34688464E46B9460700B4428B
:1039600007D2551C4B4641462020B84701342A0057
:10397000F5E73D004F465C46019B9B46B1464646F7
:10398000B84637002E0007E0013C551C5346185D31
:1039900043463900B0472A00002CF5D135003E00DF
:1039A00047460F9B9B0707D4100003B0F0BCBB46F3
:1039B000B246A946A046F0BDB0464E46B9462F00D5
:1039C0005D46531BB342EFD2541C4B464146202068
:1039D000B8472200F5E7F0B5CE46474680B585B03A
:1039E000944698460C9D0D9C0EAB1B789946109AF8
:1039F000119B129EB7071CD4002B0CD0F7070AD5D9
:103A00004F46002F02D10C37374204D0013B02E071
:103A100030272F550134944201D21F2CF8D9F707D3
:103A200007D59C4205D21F2C03D830272F550134CF
:103A3000F5E7F70615D5770505D4002C03D0944299
:103A400024D09C4222D00F9A102A2BD00F9A102AF1
:103A500030D00F9A022A35D01F2C02D830222A5596
:103A600001341F2C05D84A46002A31D02D222A5570
:103A70000134039602930194009543466246FFF792
:103A800053FF05B0C0BCB946B046F0BD621E012C64
:103A900006D00F9F102F01D01400D4E7023CD2E7CC
:103AA0001400D0E7B206D1D41F2CCFD878222A55E3
:103AB0000134D1E7B206CCD51F2CCAD858222A55DA
:103AC0000134C9E71F2CC7D860322A550134C3E737
:103AD000720703D52B222A550134CAE73207C8D50D
:103AE00020222A550134C4E7F0B5DE4657464E463B
:103AF0004546E0B593B081468A46089209931CABCF
:103B000010CB1B789B461E9D219B9846002C03D111
:103B1000102342469A4390468023DB0046461E40CF
:103B200042461A4212D0002C22D000260EE030333A
:103B3000D9B2771C0AAB99552900200000F0F0FF9C
:103B4000AC4216D31F2F14D83E00040029002000D9
:103B500000F0E6FFCBB2092BE9D94246920605D523
:103B60004121C918C9B20A39C9B2E2E76121F8E7AF
:103B7000270043460693209B05931F9B04930395C0
:103B80005B46029301970AAB0093099B089A514642
:103B90004846FFF720FF13B0F0BCBB46B246A9462B
:103BA000A046F0BDF0B5DE4657464E464546E0B568
:103BB00095B0089009910A920B931E9E1F9C20AB12
:103BC0001B789B46229B9946239D269B9A46330051
:103BD000234303D1103352469A4392468023DB009D
:103BE00057461F4052461A4219D0330023432DD066
:103BF000002714E03033DAB27B1C98460CABDA5560
:103C00004A462B003000210000F0CCFFA5421FD80F
:103C100019D043461F2B1BD8474606000C004A46C6
:103C20002B003000210000F0BDFFD3B2092BE1D9F9
:103C30005246920605D54122D218D2B20A3AD2B2E1
:103C4000DAE76122F8E7B145E3D901E000239846BD
:103C500053460693259B0593249B04934B4603935D
:103C60005B460293434601930CAB00930B9B0A9A6D
:103C700009990898FFF7AFFE15B0F0BCBB46B246F5
:103C8000A946A046F0BD0000F0B5DE4657464E46B8
:103C90004546E0B591B083468A460C9298461A9CF8
:103CA00008941B9D099522002B002000290001F09B
:103CB00008FA002800D0E5E001225242D74B20004C
:103CC000290001F0F9F9002800D0DBE0012252427E
:103CD000D34B2000290001F0D9F9002800D0D1E011
:103CE00000220023089E3000099D290001F0CEF932
:103CF000002800D0DDE008980999069007918023FC
:103D0000DB001E9A1A400D921E9A1A4201D1062318
:103D10001C930698079904000D000A000600024350
:103D200000D1D1E0080D4005400DBE4CA4466044D2
:103D30000A03120BBC4B13431F0001F0D5F9BB4A19
:103D4000BB4B01F060F9BB4ABB4B01F035F90400F5
:103D50000D000022B94B3000390001F024F9B84AB7
:103D6000B84B01F050F902000B002000290001F0CF
:103D700023F901F0D1F9814601F0B6F904000D00F4
:103D8000B14AB24B01F03FF90022B14B01F014F9F6
:103D900001F0C2F90600AF4AAF4B2000290001F044
:103DA00032F904000D00300001F09EF9AB4AAC4B33
:103DB00001F029F902000B002000290001F0F3F8BE
:103DC00004000D0002000B0001F01DF90A900B9198
:103DD000A44BF31800261F0522002B002000290009
:103DE00001F0EAF80E900F9122002B0000208021B4
:103DF000C90501F0D8F804000D0000229A4B0A987A
:103E00000B9901F0E2F80022984B01F0D5F802007E
:103E10000B000A980B9901F0D8F80022944B01F09E
:103E2000CBF802000B000A980B9901F0CEF80200C3
:103E30000B002000290001F0BFF802000B000E98D3
:103E40000F9901F0C2F80022774B01F0B5F832006B
:103E50003B0001F0D8F806000F0004000D00069AA0
:103E6000079B01F029F9002830D001235B429C46D2
:103E7000E14400227D4B3000390001F0A6F8040037
:103E80000D0023E01E9B04931D9B03931C9B029338
:103E9000089A099B0092019343460C9A5146584652
:103EA00000F0FCF811B0F0BCBB46B246A946A046F3
:103EB000F0BD0023002406930794069680231B067A
:103EC0009C46654407951AE7002399464B466333A1
:103ED000C62B1ED804261E9B1B0526D52B0023436C
:103EE0000FD0644A644B0698079901F0DDF800286A
:103EF00079D00022614B0698079901F0C7F8002895
:103F000071D01C9B4B4506DD4A46981A431E1C93F4
:103F100003E00526DFE700231C938023DB001E9AC5
:103F20001A431E920026002399461D9B9E4264D28E
:103F30009F1B02231E9A1A400A921E9A134202D015
:103F4000002E00D000274B46002B07D022002B006C
:103F50000698079901F039F806900791002200238E
:103F60000898099901F092F8002848D1444B1E9A0C
:103F70001340049303971C9B0293069B079C00939A
:103F8000019443460C9A5146584600F087F8002E9B
:103F900000D187E71E9B9B063DD54525441C434623
:103FA000020051462800D8474B46DA179B18534069
:103FB00005220592013E0496002203920A320292E3
:103FC0004A46D00F0190009343462200514658467E
:103FD000FFF78AFD0A9B002B00D163E702005F46D2
:103FE0000C9E1D9D54E01C9B002B9ED00D9B002B16
:103FF0009BD01C9B013B1C9397E7002799E7069CED
:10400000079D2200290080200006844661440B00A1
:1040100006920793AAE76525C0E7C046FFFFEF7F3A
:10402000FFFFEFFF01FCFFFF0000F03FFB799F5017
:104030001344D33FB3C8608B288AC63F0000F83FC3
:1040400061436F63A787D23F71A379094F930A40F9
:104050000000E03F1655B5BBB16B0240EF39FAFEE8
:10406000422EE63FFF03000000002C4000002440E9
:10407000000018402D431CEBE2361A3F80842E418D
:10408000FFF7FFFF541C434651462020B84722004B
:10409000931BAB42F6D3100004E7C046F0B5DE46F2
:1040A00057464E464546E0B595B006900791934673
:1040B0009946209F1E9A1F9B1000190001F001F8DD
:1040C000002831D101225242BF4B1E981F9900F0A7
:1040D000DDFF002837D101225242BC4B1E981F99A8
:1040E00000F0EAFF00283DD10022B94B1E981F992D
:1040F00000F0E2FF002850D10022B64B1E981F9915
:1041000000F0C4FF002848D1002200231E981F9908
:1041100000F0BCFF002850D100239846229B5B058D
:1041200000D4B6E0002458E0229B0393219B029325
:1041300003230193A84B00934B465A4607990698D0
:10414000FFF7F2FB0EE1229B0393219B02930423D2
:104150000193A24B00934B465A4607990698FFF7E6
:10416000E3FBFFE00423229A1A4022990B4210D06D
:104170009B4B002A0FD0042222990391219902918E
:10418000019200934B465A4607990698FFF7CCFBDD
:10419000E8E0944BEDE70322EEE7229B0493219B9A
:1041A000039302971E9B1F9C009301944B465A4613
:1041B00007990698FFF768FDD4E01E9A1F9B002020
:1041C000002100F0F0FE1E901F9101239846A5E704
:1041D0000CAB30221A55013F01341F2C01D8092F96
:1041E000F6D81E981F9900F097FF050000F07CFF9D
:1041F00002000B001E981F9900F0D5FEFA007A4BC2
:104200009B181A685B680A920B9300F0FCFE0890FA
:10421000099100F0A5FF060000F062FF02000B000C
:104220000898099900F0BFFE0890099100226F4B91
:1042300000F042FF00282ED00136300000F050FF81
:1042400002000B000A980B9900F026FF002801D00D
:1042500001350026002F2CD1280000F045FF020078
:104260000B001E981F9900F09EFE06000F00002212
:104270005E4B00F00BFF002846D100225B4B300064
:10428000390000F019FF00283ED1EB073CD501357D
:104290003AE0062746E70022544B0898099900F0B7
:1042A000F5FE0028D6D1002E01D0F307D2D5013675
:1042B000D0E7AA461F2C11D8013F0A21300000F098
:1042C0002FFC651C30310CAB19550A21300000F071
:1042D00027FC092E0ED906002C00EBE755461F2CB3
:1042E0000CD87B1E002F09D00CAA302111551F00BD
:1042F0000134F4E72B0055461C00F0E71F2C03D8CF
:104300000CAB2E221A5501341F2C10D80A2128007C
:1043100000F0DEFB661C30310CAB19550A21280079
:1043200000F0D6FB051E01D03400EDE73400032376
:10433000229A1340012B1CD01F2C06D84346002B79
:1043400032D00CAB2D221A550134229B0393219BB2
:10435000029301940CAB00934B465A46079906987A
:10436000FFF7E2FA15B0F0BCBB46B246A946A0463C
:10437000F0BD219B002B13D04346002B02D10C3300
:1043800013420FD0219B013B2193190003E00CAB9A
:1043900030221A5501348C42CED21F2CF7D9CBE7EC
:1043A0002199F8E72199F6E7229B5B0704D50CAB2E
:1043B0002B221A550134C8E7229B1B07C5D50CAB2D
:1043C00020221A550134C0E7FFFFEFFFFFFFEF7F08
:1043D00065CDCD4165CDCDC19CAB0010A0AB00102B
:1043E00094AB001090AB001088AD00100000E03FCF
:1043F000F0B5DE4657464E464546E0B593B0824698
:104400008B4690461193002900D1EBE200275546D8
:10441000119B1878002800D1E7E2252809D07C1CE0
:1044200043463A005946A847119B01331193270090
:10443000EEE7013311930024119A11780B00203B11
:10444000D8B2102803D88300D048C3589F460B0029
:10445000303BDBB2092B2CD92A292FD000230A9319
:10446000119B1A782E2A39D000239A46119A137874
:10447000683BD9B2122976D88B00C549CB589F46E4
:1044800001231C4301321192D6E702231C4301325F
:104490001192D1E704231C4301321192CCE7082387
:1044A0001C4301321192C7E710231C4301321192C1
:1044B000C2E711A8FFF726FA0A90D1E71C9B1A1D44
:1044C0001C921868002804DB0A90119B0133119399
:1044D000C6E702231C4343420A93F6E78022D20038
:1044E00014435A1C11925A781300303BDBB2092B4B
:1044F00004D92A2A07D000239A46B7E711A8FFF764
:1045000001FA8246B2E71C9B1A1D1C92186800280B
:1045100004DB8246119B01331193A7E70020F8E7E3
:1045200080235B002343511C119152786C2A01D0E7
:104530001C0018E0C0239B001C430131119112E0C4
:1045400080232343511C11915278682A01D01C000A
:1045500009E0C0231C430131119104E080235B007A
:104560001C4301321192119B18780300253BDAB2EB
:10457000532A00D92CE29300864AD3589F468023C1
:104580009B001C4301321192EDE780235B001C432A
:1045900001321192E7E7782809D0582838D06F28DF
:1045A00038D0622838D010239C430A2600E0102619
:1045B000582833D0692803D0642801D00C229443B2
:1045C000630501D50122944369282AD0642828D0A4
:1045D000A30500D59FE0E30500D5B8E0630600D44D
:1045E000CAE01C9A111D1C911168FF220A40059413
:1045F0000A9B04935346039302960023019300926F
:1046000043463A0059462800FFF76EFA070027E0B4
:104610001026CDE70826CBE70226C9E7202214435F
:10462000C8E7A30520D4E30550D4630666D51C9AD9
:10463000111D1C911168FF220A40D317D11859404F
:1046400005940A9B0493534603930296D20F01925A
:10465000009143463A0059462800FFF745FA070003
:10466000119B01331193D3E61C9BDA1D07218A436A
:10467000110008311C91116853689C46DB170C939C
:104680000D930C9A0D9B100048400E9062465340CB
:104690000F930E980F990C9A0D9B801A99410E90CA
:1046A0000F9108940A9B07935346069304960023A0
:1046B00005936346DA0F02920090019143463A0057
:1046C00059462800FFF76EFA0700C9E71C9A111D2A
:1046D0001C911268D317D118594005940A9B049372
:1046E000534603930296D20F0192009143463A003B
:1046F00059462800FFF7F8F90700B1E7230605D56A
:104700001C9A111D1C910023D25E96E71C9A111D64
:104710001C91126891E71C9BDA1D07218A43110046
:1047200008311C9108940A9B0793534606930496FC
:104730000023059302931368546800930194434641
:104740003A0059462800FFF72DFA070088E71C9A1F
:10475000111D1C9105940A9B0493534603930296E2
:10476000002301931368009343463A0059462800FA
:10477000FFF7BAF9070073E723060DD51C9A111D40
:104780001C9112681204120C31E7C046A8AB00104D
:10479000ECAB001038AC00101C9A111D1C91126873
:1047A00025E746281AD01C9B0733072293431A009B
:1047B00008321C9204940A9A0392524602925C6850
:1047C0001B680093019443463A0059462800FFF7BE
:1047D00065FC0700119B0133119319E620231C434C
:1047E000E1E7672801D0472802D180231B011C4341
:1047F000452801D0472801D120231C431C9B0733A7
:10480000072293431A0008321C9204940A9A0392D6
:10481000524602925C681B680093019443463A003A
:1048200059462800FFF730FA0700119B0133119316
:10483000EEE502231A002240924623421FD00124B3
:104840001C9B1A1D1C927A1C9146187843463A000C
:104850005946A8475346002B16D1119B013311939B
:104860004F46D5E5561C434659462020B8472300FD
:1048700032005C1C9D42F5D83D001700E0E70123A3
:104880003A002F000A9DF4E74A46A9460A9D06E031
:10489000571C434659462020C84734003A00661C3E
:1048A000A542F5D84D469146D7E71C9B1A1D1C9290
:1048B0001B6899465346002B00D1013B4E4601E050
:1048C000013613003278002A02D05A1E002BF7D18D
:1048D0004B46F21A10928023DB0026001E401C4239
:1048E00003D0524501D95346109302231A002240A7
:1048F0000B92234205D03A0037004C46A946554654
:1049000020E03A00109B5F46B3462E0006E0551C9F
:10491000434639002020B04723002A005C1C0A9936
:104920009942F4D835005E46BB46109437004C4699
:10493000A946554606E01D000134561C434659461B
:10494000C84732002078002804D0002FF4D06B1E16
:10495000002DF0D117004D460B9B002B03D1119B6E
:104960000133119354E50A9F109B06E0561C434601
:1049700059462020A847230032005C1C9F42F5D8EE
:104980001700ECE721231C431C9B1A1D1C921B687B
:104990000093059408230493534603931023029332
:1049A0000023019343463A0059462800FFF79CF83C
:1049B0000700119B013311932AE57C1C43463A0002
:1049C00059462520A847119B0133119327001FE565
:1049D0007C1C43463A005946A847119B013311936A
:1049E000270015E50A4B9A4610E5AA46474502D32B
:1049F00043465A1E00E03A00434659460020D0473D
:104A0000380013B0F0BCBB46B246A946A046F0BD84
:104A1000F53800100EB410B585B0010007AC08CC15
:104A200003940122009452420348FFF7E1FC05B0D1
:104A300010BC08BC03B01847ED38001000B585B0B5
:104A4000029003910121009313004A4202A90248F7
:104A5000FFF7CEFC05B000BDF73800100148042177
:104A6000014B184700C50120994A0010014B9B6873
:104A70001847000000C5012010B5010018231B884D
:104A800014221088984710BD10B5010018231B8808
:104A900016221088984710BDF0B5C64600B507002D
:104AA0000E0000250123984600E00135B5420AD2E8
:104AB000AC003C192068FFF7DFFF20600028F4D12C
:104AC00000239846F1E7404680BCB846F0BD0000A0
:104AD000124A936F9B0815D29066D166002905D0C3
:104AE000FFE7FFE7FFE7516F106F704704B58021C4
:104AF0000906C2175140002800D0C84304F020FE28
:104B0000002104BDF0B5146E556E576F166FFFF798
:104B1000E3FF1466556657671667F0BD000000D0C6
:104B2000114A936F9B0813D210665166002905D075
:104B3000FFE7FFE7FFE7516F106F704704B50028EC
:104B400001D00020C04304F0FBFD002104BDC0469D
:104B5000F0B5146E556E576F166FFFF7E5FF1466CC
:104B6000556657671667F0BD000000D094464E4A60
:104B7000926F9208624601D230E0C046F0B54A4ECC
:104B8000B56F6D08FCD3346E756E776F366F00F0BD
:104B900025F89446444A1466556657671667624678
:104BA000F0BDC0469446404A926F9208624601D2D8
:104BB00058E0C046F0B53C4EB56F6D08FCD3346E7E
:104BC000756E776F366F00F04DF89446364A14666E
:104BD0005566576716676246F0BDC046002B24DB5A
:104BE00011D000293EDA00B5C943404200D101315D
:104BF00000F038F8C943404200D10131DB43524252
:104C000000D1013300BD002AEBD1002801D10029D9
:104C100005D00020C90FC90701D1C043410800B524
:104C200004F086FD0022002300BD00B500290ADB48
:104C3000DB43524200D1013300F014F8C943404233
:104C400000D1013100BDC943404200D10131DB43F5
:104C5000524200D1013300F005F8DB43524200D14B
:104C6000013300BD002923D1002B18D1002A0CD01C
:104C7000BC460D4F38667A6600210023FFE7FFE748
:104C8000FFE77A6F386F67467047002801D0074802
:104C9000010000B504F04CFD0022002300BD02001D
:104CA0000B00002000217047000000D0FFFFFFFF35
:104CB000002B00D0BFE0130C28D1002AE7D080B42D
:104CC000114F39667A66FFE7FFE730B4040C7B6F5B
:104CD000396F1B0423433B667A66FFE7FFE7FFE774
:104CE000C04684B27B6F3D6F1B0423433B667A66EC
:104CF000FFE7FFE7C04600232C042D0C7A6F386FC6
:104D000000196941B0BC7047000000D0F0B594466E
:104D10000025140E01D112020835140F01D1120121
:104D20000435940F01D192000235D40F01D1520005
:104D30000135D40B0134254F7C66254C3C660E0CA6
:104D400093B2FFE7FFE7FFE73C6F6643360C77035C
:104D5000BE467343DF0B5B04C01AB941130C7343A7
:104D6000DB18C91ACE086643360CB64493B27343B7
:104D70001F0F1B01C01AB941130C73431F0B1B05F6
:104D8000C01AB941860D8F023E436643360C092D89
:104D900024DB520A7243801A7703460A6643360CB4
:104DA00016235B1BDE40DF40BF1964466643821B4F
:104DB0007046043506330100D940A840C01900D31D
:104DC0000131A24206D20023F0BD0000000000D055
:104DD000FFFFFFFF121B0130F3D3F1E709277F1B11
:104DE000FE406446A2B27243801A00D20139220CFE
:104DF0007243130C1204821A99410B007046043559
:104E000013370100F940A840801900D30131002B6D
:104E100002D1A2420AD2F0BD013000D30131121BEF
:104E2000FAD2013BF8D1A24200D2F0BD013000D34A
:104E30000131121BF7E7F0B51C0C00D080E00CB478
:104E400000251C0A04D11B02160E3343120208353A
:104E50001C0B04D11B01160F3343120104359C0BAC
:104E600004D19B00960F334392000235DC0B02D134
:104E700092185B4101351C00971864410134464F7C
:104E80007C66464C3C660E0CFFE7FFE7FFE7C0463A
:104E90003C6F6643360C7703BE4697B27743C01B20
:104EA00000D20139C01B00D201399FB27743C91B20
:104EB000C91B170C77437E04FF0B801BB941CE083A
:104EC0006643360C0C2D33DBB644120B1F053A43F8
:104ED0001B0B97B27743C01B00D201399FB27743B7
:104EE000C91B170C77433E043F0C801BB941860D4C
:104EF0008F023E43664329277F1BFE400C3D7746C9
:104F0000AF40BF1930BCA2B2ABB272437343801A38
:104F10009941220C7243130C1204801A9941020029
:104F20000B000137001BA941F9D2781E0021F0BD0A
:104F30000C277F1BFE4077467F0BAF40FF19E0E751
:104F400000245D1C07D0144F7D663966FFE7FFE73C
:104F5000FFE7FFE73C6F95B29EB265436643401B97
:104F6000B141150C1E0C6543664336042F0C3E43BD
:104F70002D04401BB141994204D202000B002000D5
:104F80000021F0BD01D19042F7D3801A994101343C
:104F90009942F2D3F6E70000000000D0FFFFFFFFC8
:104FA00048404140484018B41B4B5B68FC460193A5
:104FB00008BD04DF7B52001018B4174B1B68FC4679
:104FC000019308BD00DF855200109446134A926F8A
:104FD000920809D2624618B40F4BDB68FC46019375
:104FE00008BD0CDF3D5500100C4AF0B5146E556E2F
:104FF000576F166F6246FFF7EEFF084A1466556654
:1050000057671667F0BD18B4034B9B68FC460193C5
:1050100008BD08DFE15300107CD90120000000D05A
:10502000FFB550404240504059404B40594000E08D
:10503000FFB5154F4C00640D03D0BC4204D10C03E6
:1050400014D80020090D09055C00640D03D0BC4292
:1050500004D11C030AD800221B0D1B0501264B405E
:1050600009D44B4003D58B4200D18242FFBD994207
:10507000FCD19042FFBD0B43DB1803431343F5D033
:10508000C9434918FFBD0000FF07000000B5FFF746
:10509000CFFF804100BDC04600B5FFF7C9FF01D971
:1050A000002000BD012000BD00B5FFF7B9FF01D908
:1050B000002000BD012000BD00B5FFF7B1FF804119
:1050C00000BD012040054A00121804D85A001218E9
:1050D00001D8002070470120704700207047000071
:1050E0000021002805D17047C1174840401AFAD066
:1050F000C90713B5064B1B6898470CBC441CA2405B
:105100001005120B0349091B09051943114310BD72
:105110007CDA01201F04000010B54C00620D8023D2
:10512000D218DB00D21A5B057E2A10DD9E3A13DA14
:10513000CC170903490819435242D1406400013495
:105140001532202A05DAD0400843604310BD002004
:1051500010BD0846604310BDC80FC018013810BD0F
:1051600018B4044B5B6AFC46019308BD24DFED567E
:10517000001000007CD9012070B513231C78012C8D
:1051800014D0012C14DC022C02DC1F4A1F4B9A6441
:105190001F48FFF771FC1F4B186070BD99001A483B
:1051A0001A4A885001331F2BF8D9EAE70023FAE79F
:1051B0001948FFF769FC05001848FFF765FC02383D
:1051C00003789B007F2B19DD802229000F4800F017
:1051D0001FFC022CD7D1124B1A88B5231B029A420E
:1051E00009D1104B1A88104B9A4204D10F4B1A88E0
:1051F0000F4B9A42C7D00020FEF732F90D4B0E4AF2
:1052000032210E48FEF792F8415200107CD901205D
:105210004C3300007CDA0120534400005346000068
:1052200054380000D8380000494600009C3800007F
:1052300059460000D8AD001080AE001038AE001006
:1052400007B56046002800D100BE01880A0A023076
:10525000DF2AFAD1C9B2820804D302884088000448
:10526000104300E00068024A5050039007BD000060
:105270007CD901200FB403BC0CBCF0B50124E407B9
:10528000634000E0F0B50C0DCF0F661E3605891B9C
:10529000640503D3C943404200D30131640D03D0F8
:1052A000661CF60A07D0E41B00207F00791C8907E2
:1052B0008912803C24031D0DDF0F6E1E36059B1BDB
:1052C0006D0503D3DB43524200D301336D0D03D090
:1052D0006E1CF60A07D0ED1B00227F007B1C9B078B
:1052E0009B12803D2D032F1B661B58D4A446202EF5
:1052F00046DA20371400BC401D00BD40F240334167
:105300002A4380185941CB0F05D0C943C04300221E
:1053100064425041514162464D0D28D10D0D07D1D7
:1053200000281FD0241940414941013A0D0DF9D000
:10533000640006D3013000D30131002C01D14008B4
:105340004000013A0BD4941CE40A04D11205114424
:10535000DB071944F0BDD907204B194300E0D907FA
:105360000020F0BD0029DDD1002CDBD1F0BD0132E1
:10537000C6074008CD0728434908002EE1D0D9E7E9
:105380003C2E29DA203E40371400BC4000D00124D6
:10539000F24014431A00BB401C43D317ACE7AC46A1
:1053A000202F08DA20360400B4400D00B540F84044
:1053B00039412843A5E73C2F0CDA203F4036040052
:1053C000B44000D00124F84004430800B1400C432D
:1053D000C117EAE710001900002494E70000F07FED
:1053E000F0B50C0D661E3605891BE60A6405640DD2
:1053F00002D0651CED0A04D0002001210905803C83
:105400002403A4461C0D671E3F05DB1BE70A640549
:10541000640D02D0651CED0A04D0002201231B0597
:10542000803C24037740644497B484B296B27443BA
:10543000070C7E43150C6F4380B26843361802D3C5
:10544000012000043F183004350C00197D418446CA
:1054500088B29AB250430C0C62431F0C7C438EB24C
:105460007E43921902D301263604A4191604170CA0
:105470003618674101BC81B29AB25143040C6243B1
:105480001B0C5C4380B25843121802D30120000465
:1054900024181004130C401863412D185E4100209D
:1054A000474106BC88B293B258430C0C6343120CBC
:1054B000544389B251435B1802D301210904641893
:1054C00019041A0C091862416D1856410020474111
:1054D00018BCF902720D1143F0026A0D1043ED027F
:1054E0000A0D03D16D1940414941013B124E9B1BEE
:1054F0007600B3420ED26D0007D301300026714111
:105500006646354301D1400840001B05C918E40731
:105510002144F0BD0BDA013306D1013004D1013151
:105520004F0D01D04908F2E7E1070020F0BD013638
:1055300031050020EBE70000FF030000F0B51C0D73
:10554000671E3F05DB1BE70A6405640D02D0661C7D
:10555000F60A04D0002201231B05803C2403D02539
:105560002D060026F6432E661E096E66CE0FF6192E
:10557000B44649004F0D02D07E1CF60A03D000202D
:105580000021403F3F033E1BB600B444013F7F056E
:10559000C91B49082E6F013676089C02950D2543DC
:1055A0007543ED137543AD1301356D10F603761B8E
:1055B0000CB4CC02450D2C43A2B2B3B25A43270C13
:1055C0007B43350C6F43A4B26C431B1902D30124F7
:1055D00024043F191C041D0CA4187D4124196D419D
:1055E000009A91B2ACB26143170C7C432B0C5F4321
:1055F00092B25A43A41802D301221204BF18220403
:10560000230C52187B41019C6C431B19520ED9018B
:105610000A434401A01A81B2B2B2514303145A435F
:10562000360C734387B27743D617D21900277E41D1
:1056300036049B191704160C7F185E417316ED187B
:10564000F301002680337541A90F06D16400690A71
:10565000E8055B0A184309D22FE004229444803302
:105660007541A90AA8059B0A184326D34041494120
:105670002404009A019B0D005543641B4343E41A24
:1056800095B286B27543170C7E43030C5F4392B20A
:105690005A43B61802D301221204BF183204330C45
:1056A00052197B4152429C41002C02D4002201300D
:1056B00051414008CA071043490802B06246D70763
:1056C0009210084BD218084B9A4203D2120589183F
:1056D000C919F0BD0020002A01DC3900F0BD0133FA
:1056E0001905F5E7FD030000FE070000002200B5E4
:1056F000203200F004F8080000BD000000220B1565
:105700000AD410B5944600F031F81414013400DACC
:105710000021CB17144C2047002000217047624421
:10572000343A0CD40C2A07DA0400914090405242DB
:105730002032D440214310BDD843D94310BD20327C
:1057400007D40C469440524220321141D0402043AD
:1057500010BD0800C917203203D452422032104134
:1057600010BD1800190010BD1F5700100A0DCC0FF6
:10577000531E1B05C91A520503D3C943404200D327
:105780000131520D03D0531CDB0A07D0121B00203D
:105790006400611C89078912803A1203014BD21AF6
:1057A00070470000FF03000051434343C9188C4673
:1057B000110C83B24B4310B4040C614392B280B21B
:1057C000504362431C041B0C001910BC59411304C4
:1057D000120CC018514161447047000048404140DC
:1057E000484000239C46114B5B68184700239C46A9
:1057F0000E4B1B6818470E4A936F9B0804D2002378
:105800009C460A4BDB681847F0B5146E556E576F0F
:10581000166FFFF7F4FF064A14665566576716675A
:10582000F0BD00239C46014B9B68184780DA01209D
:10583000000000D0C10FC90700D54042002817D092
:10584000F44603B40B4B1B68984706BC81409E3856
:105850004042803107D20B0607D04900490AC005F3
:105860001043084360470130F8E7490A8902F5E729
:10587000704700007CDA012000239C46014B5B6AE4
:105880001847000080DA012070B513231D782A48DC
:10589000FFF7FAF80400012D11D0012D09DDA31E38
:1058A0001B789B007F2B40DD80222100234800F0E5
:1058B000AFF82348FFF7E0F8224B186070BD542280
:1058C00001001E4800F0A4F81F4B1A881F4B9A4293
:1058D0001CD1A7239B011A881D4B9A4216D11D4B40
:1058E0001A881D4B9A4211D11C4B1A8894239B0194
:1058F0009A420BD11A4B1A881A4B9A4206D11A4B6C
:105900001A681A4B9A4201D1152307E01848FDF78F
:10591000A7FD99001748094A885001331F2BF8D971
:10592000144A064B1A62DA61B7E7134B134A422155
:105930001348FDF7FBFCC0465346000080DA012007
:105940004C3300007CDA0120EE290000C40F000077
:10595000C20D0000962B0000C0B50000182B0000FF
:10596000CC2A000010B50000FC2C000051ED87642B
:10597000BC9700108559001094AE001010AF0010B5
:10598000C8AE001007B56046002800D100BE0188EF
:105990000A0A0230DF2AFAD1C9B2820804D3028887
:1059A00040880004104300E00068024A5050039011
:1059B00007BD000080DA012070B504000A4E3000F7
:1059C00003F0DEFE200003F01BFA0500300003F0B8
:1059D000A7FE002D05D02C19044B9C4201D82800AD
:1059E00070BD0348FDF73CFDA8CD01200000042058
:1059F00024AF001001480421014B184710C50120B5
:105A0000994A0010014B1B681847000010C501207F
:105A1000014B5B681847000010C5012010B503005A
:105A2000080011001B68984710BD0000F8B507007A
:105A30000D001600437C002B02D0002400200CE057
:105A400003681100280098472DE03B7C10E00221FC
:105A500015483B689847601C0134B44214DA002CA6
:105A6000F3DD2B19013B1B780D3B5A425341DBB24E
:105A70002A5D0A2AF0D1002BEED1A042E7DA211AE2
:105A800028183B689847E2E7B04203DA311A281831
:105A90003B689847002E06DDAD19013D2B780D3B84
:105AA0005A4253413B74F8BDA4AF001070B50500D5
:105AB0000368002B16D00C4B1C6805E0290004C9B4
:105AC0002000FFF7B3FFE468002C09D02368002B07
:105AD000F9D0064B1B68002BF0D0A342F3D1EDE7C1
